:020000040800F2
:1000000000040020CF0100089102000893020008BC
:10001000970200089B0200089F02000800000000F1
:10002000000000000000000000000000A302000823
:10003000A502000800000000A7020008A9020008AD
:10004000EF010008EF010008EF010008EF010008D0
:10005000EF010008EF0100086D070008EF0100083C
:10006000EF010008EF010008EF010008EF010008B0
:10007000EF010008EF010008EF010008EF010008A0
:10008000EF010008EF010008EF010008EF01000890
:10009000EF010008EF010008EF010008EF01000880
:1000A000EF010008EF010008EF010008EF01000870
:1000B000EF010008EF010008EF010008EF01000860
:1000C000EF010008EF010008EF010008EF01000850
:1000D000EF010008EF010008EF010008EF01000840
:1000E000EF010008EF010008EF010008EF01000830
:1000F000EF010008EF010008EF010008EF01000820
:10010000EF010008EF010008EF010008EF0100080F
:10011000EF010008EF010008EF010008EF010008FF
:10012000EF010008EF010008EF010008EF010008EF
:1001300000F002F800F03AF80AA090E8000C8244BF
:100140008344AAF10107DA4501D100F02FF8AFF29C
:10015000090EBAE80F0013F0010F18BFFB1A43F0A5
:10016000010318470C3800002C380000103A24BF57
:1001700078C878C1FAD8520724BF30C830C144BF0C
:1001800004680C607047000000230024002500264E
:10019000103A28BF78C1FBD8520728BF30C148BFEA
:1001A0000B6070471FB51FBD10B510BD02F08CFA73
:1001B0001146FFF7F7FF00F02DF802F0BEFA03B486
:1001C000FFF7F2FF03BC00F071F9000070470B4825
:1001D00080470B4981F308880A480047FEE7FEE79D
:1001E000FEE7FEE7FEE7FEE7FEE7FEE7FEE7FEE7E7
:1001F00005480649044A064B70470000CD01000837
:10020000800A00203101000880020020800A0020BE
:1002100080020020092000F0B9F9482000F0F6F82B
:1002200000F071F94FF4165000F08DF900F0F4F978
:10023000F922472140F2F31000F024FA472140F25E
:10024000F31000F019FB00F0ADFA00F0BEFA00F078
:10025000E8FA00F031FB00F061FA00F06FFA0CE010
:1002600006480068C0430649C1F8B8014FF4FA7067
:1002700000F0FBF803A002F0D5F9F1E7B801244241
:100280000000244272756E6E696E670D0A000000F0
:10029000704700BFFEE700BFFEE700BFFEE700BFFC
:1002A000FEE770477047704770470000014607231C
:1002B00023EA010212024E4B18684FF6FF03184062
:1002C0004C4B184310434A4B186070472DE9F047D8
:1002D0008046894614461D462046E11704EB91717D
:1002E000C1F3870AE11704EB91718910A4EB810136
:1002F000CFB2042000EBC700C7B22846FFF7D6FFF5
:10030000C5F1040008FA00F60F20284100EA0900B0
:10031000064306F00F06202C09DA37480168012051
:10032000A04001434FF0E020C0F800110BE032483C
:10033000001D0068A4F1200101228A4010434FF003
:10034000E021C1F804012D4810F80A0006FA07F16F
:100350000843C1B2294800F80A10BDE8F08770B51B
:1003600004460B46CE1701EB9676C6F38700CE17F0
:1003700001EB9676B610A1EB8606B606350E204B3D
:100380009B6943F001031E4EB3614FEAB63353F845
:1003900020300F26AE40B3431A4E46F82030334685
:1003A00053F8203004FA05F61E43164B43F820603C
:1003B000154B1B6801268E403343134E336002F009
:1003C000010343B1104B0C331B6801268E403343AD
:1003D0000D4E0C36336002F0020343B10A4B083372
:1003E0001E6801238B401E43074B08331E6070BDFF
:1003F0000CED00E00000FA0500E100E000E400E0A0
:100400000010024008000140000401404FF0E021CC
:10041000096921F004014FF0E0221161C108214A6D
:100420001160114609684FF47A7251431E4A1160F7
:10043000704701461B4A12684A434FF0E0235A6155
:1004400000229A6101221A6100BF4FF0E022106978
:1004500000F001021AB100F48032002AF5D0002227
:100460004FF0E0231A619A61704701460E4A126804
:100470004A434FF0E0235A6100229A6101221A6137
:1004800000BF4FF0E022106900F001021AB100F441
:100490008032002AF5D000224FF0E0231A619A61E1
:1004A00070470000000000200400002000BF7047DB
:1004B00070B504460D4600BF8021324801F0BAF8FD
:1004C0000028F9D0A1B22F4801F046F8204670BDAF
:1004D00010B5044600BF80212A4801F0ABF800287F
:1004E000F9D02146274801F037F810BD10B500BFFC
:1004F0002021244801F09EF80028F9D0214801F07D
:100500002FF8C0B210BD08B5012144F2040000F07C
:1005100059FD4FF40070ADF8000018208DF803006D
:1005200003208DF802006946174800F08FFA4FF457
:100530008060ADF8000004208DF803006946124881
:1005400000F084FA08BD1FB5044600940020ADF801
:100550000400ADF80600ADF80800ADF80C000C2062
:10056000ADF80A006946074800F0FDFE002240F29F
:100570002551044800F08FFF0121024800F07FFF61
:100580001FBD00000038014000080140002100228A
:100590001F4B1A61DA601A46126842F480321A6000
:1005A00000BF1B4A1268520C002AFAD04FF4806236
:1005B000174B5A60821ED0B21A46526842EA8042F5
:1005C0005A601A46526842F480325A60114A1268E0
:1005D00042F032020F4B1A600D4A126842F08072EC
:1005E0000B4B1A6000BF0A4A1268520E002AFAD05A
:1005F000074A526842F00202054B5A6005E0044A7D
:100600005268C2F3870101F003010229F7D1704754
:1006100000100240002002401748806940F48070BA
:10062000154988610846806940F0200088611348B8
:10063000406820F07060114948600846406840F00A
:10064000407048600846C06840F48040C8600C486C
:10065000006820F470000A4908600846006840F409
:100660004010086006480830006840F40050044913
:10067000083108607047000000100240002001406F
:1006800004140140F8B506460C4615460121022027
:1006900000F0A5FC0121052000F094FC8020ADF8BD
:1006A000000018208DF8030003208DF80200694631
:1006B000184800F0CBF918480680001F048016483F
:1006C0001438008840F4E040134914390880084683
:1006D000008840F4006008800F480C38008840F023
:1006E00010000D490C3908800846008840F02000B1
:1006F000088009480C30058007482C38008840F0F5
:10070000800005492C3908800846008840F0010027
:100710000880F8BD000801402C04004008B5012104
:10072000402000F04FFC0120ADF8000048208DF87B
:1007300003006946134800F089F908BD10B501228D
:1007400000210420FFF70BFE022306220321184696
:10075000FFF7BCFD01220D210220FFF700FE02235E
:10076000062203211846FFF7B1FD10BD10B50A207F
:10077000FFF77BFE0121034800F0FBF9012001F0A7
:1007800046FF10BD001801407348006840F48050D7
:100790007149086070477048006820F480506E49C5
:1007A0000860704708B50121042000F00BFC102000
:1007B000ADF8000000208DF8030003208DF8020042
:1007C0006946664800F042F908BD10B501214807A6
:1007D00000F005FC6048006840F004005E490860D5
:1007E0000846006840F0020008600846006840F0D3
:1007F000280008600846006840F08000086008464D
:10080000006840F4406008600846006808600846D8
:10081000006840F00100086000204F49083108607E
:1008200010BD00B58BB00121022000F0BEFB684670
:1008300000F0ECFC102002900001039000200490D6
:100840008020059040000690800007904FF44050B3
:10085000099000200A90202008903F48083000901E
:100860003F48019069463F4800F0B2FC01213D48F5
:1008700000F0D9FC0BB000BD3EB505460C46012189
:10088000042000F0ACFB384801F092FBADF80450B6
:10089000ADF800400020ADF80600ADF80200694652
:1008A000324800F0F5FF2021304801F0C6FD01215B
:1008B0002E4801F049FB3EBD2DE9F0478EB04FF0C8
:1008C000000A42E0504602F041FD06460022284B55
:1008D00002F050FD0022274BCDE9000102F06AFB37
:1008E00000224FF08043CDE9020102F043FD224A8D
:1008F000224BCDE9040102F03DFDCDE9060102F0F5
:1009000059FA04464FF066321D4B02F033FD4FF0AA
:1009100066321B4BCDE9080102F09CFA0022194B0C
:10092000CDE90A0102F026FD80464FF06632164BF3
:1009300002F040FBCDE90C0102F0C4FC084921F8AB
:100940001A000AF101001FFA80FABAF1FF0FB9DDAF
:1009500000200EB0BDE8F0870074004000080140A0
:100960002000002030000240000400400008004049
:100970000000F03F00E06F401F85EB51B81E0940BA
:100980006666FA3F0000B04066660A4010B504464D
:10099000CC48844208D10121042000F02DFB002125
:1009A000042000F029FB46E0C748844208D1012119
:1009B000082000F021FB0021082000F01DFB3AE098
:1009C000C248844208D10121102000F015FB00210B
:1009D000102000F011FB2EE0BD48844208D1012117
:1009E000202000F009FB0021202000F005FB22E080
:1009F000B848844208D10121402000F0FDFA0021CE
:100A0000402000F0F9FA16E0B348844208D10121F1
:100A1000802000F0F1FA0021802000F0EDFA0AE0D9
:100A2000AE48844207D10121801500F0E5FA00218B
:100A3000A01500F0E1FA10BD10B50121084600F044
:100A4000DBFA0021012000F0D7FA10BD2DE9F041BA
:100A5000024600250026002000230024002791F8EC
:100A600003C00CF00F0591F803C00CF0100CBCF1A2
:100A7000000F03D091F802C04CEA050591F800C0C0
:100A8000BCF1000F31D0146800202BE04FF0010CB6
:100A90000CFA00F3B1F800C00CEA03069E4220D124
:100AA00083004FF00F0C0CFA03F7BC4305FA03FC6C
:100AB0004CEA040491F803C0BCF1280F06D14FF0B2
:100AC000010C0CFA00FCC2F814C00AE091F803C053
:100AD000BCF1480F05D14FF0010C0CFA00FCC2F834
:100AE00010C0401C0828D1D31460B1F800C0BCF17C
:100AF000FF0F34DD546800202EE000F1080C4FF0A9
:100B0000010808FA0CF3B1F800C00CEA03069E4293
:100B100021D183004FF00F0C0CFA03F7BC4305FA08
:100B200003FC4CEA040491F803C0BCF1280F05D182
:100B300000F1080C08FA0CF8C2F8148091F803C010
:100B4000BCF1480F07D100F1080C4FF0010808FA7A
:100B50000CF8C2F81080401C0828CED35460BDE8C1
:100B6000F0814FF6FF710180022181700421C17074
:100B700070470246002093680B400BB1012000E053
:100B8000002070470146886880B270470246002006
:100B9000D3680B400BB1012000E0002070470146F4
:100BA000C86880B2704701617047416170470AB1FF
:100BB000016100E041617047C16070474FF48032CD
:100BC0000A4382618161826182698269704702465B
:100BD0000020434B18684FF68073184040EA02101B
:100BE00008433F4B186070473E49C8617047F0B5F5
:100BF0000A46002300240021002500F00046B6F13B
:100C0000004F02D1364EF16901E0354E7168C0F3F4
:100C1000034583B200F44016B6F5401F08D121F019
:100C200070612F4E766826F070662D4F7E6012E060
:100C300000F48016B6F5801F06D1032606FA05F4E7
:100C4000A14341F0706106E0460D360103FA06F655
:100C5000B14341F0706122B1460D360103FA06F648
:100C6000314300F00046B6F1004F02D11C4EF16155
:100C700001E01B4E7160F0BD30B500228B071C0FE8
:100C80000F2303FA04F2164B08338C1053F8243068
:100C90009343134C08348D1044F8253023468C10B0
:100CA00053F824308C07240F00FA04F423430C4C2F
:100CB00008348D1044F8253030BD0A49DC31086015
:100CC0007047000000080140000C01400010014086
:100CD0000014014000180140001C014000200140A8
:100CE0000000014000002042DF48006840F00100A1
:100CF000DD49086008464068DC490840DA49486038
:100D000008460068DA490840D74908600846006884
:100D100020F4802008600846406820F4FE00486007
:100D20004FF41F0088607047CF49096821F4803173
:100D3000CD4A11601146096821F480211160B0F597
:100D4000803F03D0B0F5802F0ED106E0C649096878
:100D500041F48031C44A116007E0C349096841F495
:100D6000A021C14A116000E000BF00BF704710B56C
:100D700001460022002300204A11012A02D1BA4C68
:100D8000236806E0022A02D1B74C236A01E0B64C80
:100D9000636A01F01F02012494401C400CB1012041
:100DA00000E0002010BD38B5002000900024002590
:100DB00000BF3120FFF7DBFF05460098401C009084
:100DC0000098B0F5A06F01D0002DF2D03120FFF7D0
:100DD000CEFF08B1012400E00024204638BD0146C2
:100DE0000020A14A106820F0F80040EAC10010601D
:100DF0007047A04908607047024600209A4B586827
:100E000020F47C1042EA01031843974B5860704766
:100E100098490866704701460020934A506820F0C0
:100E200003000843506070478F48406800F00C0092
:100E30007047014600208C4A506820F0F0000843BB
:100E40005060704701460020874A506820F4E060F7
:100E500008435060704701460020834A506820F4E0
:100E6000605040EAC1005060704729B17E4A527A12
:100E700002437D4B5A7204E07B4A527A82437A4B9A
:100E80005A7270477B49D83108607047014600208C
:100E9000754A506820F44040084350607047002174
:100EA000714A20321170704A82F82010012802D055
:100EB00004280AD104E001216B4A2032117005E0B8
:100EC0000521694A2032117000E000BF00BF704761
:100ED0006949086070476449096A0143624A1162BE
:100EE0007047654944390860704730B500210022D9
:100EF000002400235C4D6D6805F00C0121B104292C
:100F000005D0082923D105E05C4D056022E05B4D4A
:100F100005601FE0544D6D6805F47012524D6D6808
:100F200005F48034022505EB92421CB9544D55431B
:100F300005600BE04C4D6D6805F400351DB1504D5A
:100F40005543056002E04D4D5543056002E04B4DB1
:100F5000056000BF00BF444D6D6805F0F001090950
:100F6000484D6B5C0568DD4045603F4D6D6805F49C
:100F7000E061090A434D6B5C4568DD4085603A4D90
:100F80006D6805F46051C90A3E4D6B5C4568DD40F3
:100F9000C560354D6D6805F44041890B3A4D6B5C79
:100FA000C568B5FBF3F5056130BD29B12E4A52691C
:100FB00002432D4B5A6104E02B4A526982432A4B6B
:100FC0005A61704729B1284A92690243264B9A61B7
:100FD00004E0254A92698243234B9A61704729B104
:100FE000214AD2690243204BDA6104E01E4AD269E9
:100FF00082431D4BDA61704729B11B4AD268024314
:10100000194BDA6004E0184AD2688243164BDA6062
:10101000704729B1144A12690243134B1A6104E064
:10102000114A12698243104B1A61704712494039C4
:10103000086070470F49C86470470B49C871704712
:101040000948406A40F0807007494862704701468D
:101050000020054A92680A400AB1012000E0002001
:101060007047014988727047001002400000FFF885
:10107000FFFFF6FE000042428004424200127A0066
:1010800000093D000C0000201C00002001684FF604
:10109000FE72114001600021016041608160C16009
:1010A0008D49884208D18C490839496841F00F01BF
:1010B000894A083A51608AE087491431884208D148
:1010C00085490839496841F0F001834A083A51607E
:1010D0007DE081492831884208D17F490839496833
:1010E00041F470617C4A083A516070E07A493C31C1
:1010F000884208D178490839496841F47041764AF4
:10110000083A516063E074495031884208D172490D
:101110000839496841F470216F4A083A516056E035
:101120006D496431884208D16B490839496841F4F6
:101130007001694A083A516049E06749783188424C
:1011400008D165490839496841F07061624A083A36
:1011500051603CE06149884206D1011F096841F0B5
:101160000F01021F116032E05C491431884208D13E
:101170005A49091F096841F0F001584A121F1160CD
:1011800025E056492831884208D15449091F096889
:1011900041F47061514A121F116018E04F493C310F
:1011A000884208D14D49091F096841F470414B4AF2
:1011B000121F11600BE049495031884207D147495D
:1011C000091F096841F47021444A121F11607047D9
:1011D00010B50022026847F6F0739A430C6A8B68D8
:1011E00023430C6923434C6923438C692343CC6913
:1011F00023434C6A23438C6A23431A430260CB681F
:1012000043600B6883604B68C36010BD00210160C0
:1012100041608160C160016141618161C1610162C0
:1012200041628162704721B1026842F001020260AE
:1012300004E002684FF6FE731A40026070471AB16C
:1012400003680B43036002E003688B43036070474D
:10125000416070470146486880B2704701460020EF
:10126000002201F080531BB11C4B083B1A6802E0BE
:10127000194B083B1A6802EA01030BB1012000E098
:101280000020704700F0805119B11449091F08600F
:1012900002E01149083948607047014600200022E9
:1012A00001F080531BB10D4B083B1A6802E00A4B5A
:1012B000083B1A6802EA01030BB1012000E000209C
:1012C000704700F0805119B10449091F086002E01D
:1012D000014908394860704708000240080402408C
:1012E00010B50446FB48844209D101218803FFF769
:1012F00083FE00214FF48040FFF77EFE32E0F64887
:10130000844209D101214804FFF783FE00214FF4F4
:101310000030FFF77EFE25E0F048844209D101212C
:101320008804FFF776FE00214FF48020FFF771FE5E
:1013300018E0EB48844209D10121C804FFF769FE97
:1013400000214FF40020FFF764FE0BE0E5488442E3
:1013500008D101210805FFF75CFE00214FF4801041
:10136000FFF757FE10BD2DE9F04786B005460E4643
:101370000024A24600BFA1460027B08900B100BFEB
:101380002F462C8A4CF6FF700440F08804432C82D0
:10139000AC894EF6F3100440B08831890843718956
:1013A00008430443AC81AC8A4FF6FF400440B08947
:1013B0000443AC8201A8FFF798FDC648874202D1DA
:1013C000DDF810A001E0DDF80CA0A88900F40040D1
:1013D00040B10AEBCA0000EB0A1031684900B0FBCB
:1013E000F1F807E00AEBCA0000EB0A103168890047
:1013F000B0FBF1F86420B8FBF0F00401200964218F
:1014000001FB1089A88900F4004040B1322000EBB4
:10141000C900B0FBF1F000F00700044308E03220FF
:1014200000EB09106421B0FBF1F000F00F00044361
:101430002C8106B0BDE8F0874FF416510160002101
:101440008180C18001810C2141810021818170470F
:1014500010B502460020108A4FF2FF0318400B8897
:101460004C8823438C882343CC8823431843108221
:1014700010BD0021018041808180C180704721B171
:10148000828942F40052828104E082894DF6FF7322
:101490001A4082817047F0B50346002400260025DB
:1014A000002040F66A17B94200D100BF1846C1F3C8
:1014B000421401F01F06012707FA06F5012C01D19D
:1014C0000C3004E0022C01D1103000E014301AB1CD
:1014D00007682F43076002E00768AF430760F0BD6D
:1014E0001AB1838A0B43838202E0838A8B4383820F
:1014F0007047028A4FF6F0731A400282028A0A434A
:101500000282704782894FF2FF731A40828182897A
:101510000A438281704721B1828942F002028281AE
:1015200004E082894FF6FD731A4082817047028A77
:101530004FF6DF731A400282028A0A430282704722
:1015400021B1028A42F48042028204E0028A4BF610
:10155000FF731A4002827047C1F30802828070470D
:1015600001468888C0F308007047818941F0010175
:1015700081817047028BD2B20283028B42EA012240
:1015800002837047028B02F47F420283028B0A437C
:101590000283704721B1828A42F02002828204E0F5
:1015A000828A4FF6DF731A408282704721B1828AA5
:1015B00042F01002828204E0828A4FF6EF731A40F2
:1015C0008282704721B1828A42F00802828204E05E
:1015D000828A4FF6F7731A408282704721B182895E
:1015E00042F40042828103E08289C2F30E028281CA
:1015F000704721B1828A42F40062828204E0828ACA
:101600004FF2FF731A4082827047828A4FF6FB7353
:101610001A408282828A0A438282704721B1828A7A
:1016200042F00202828204E0828A4FF6FD731A4081
:101630008282704702460020B1F5007F00D100BFD2
:1016400013880B400BB1012000E00020704701F42B
:101650000072B2F5007F00D100BFCA43028070471C
:1016600070B50246002400230025002040F66A16CB
:10167000B14200D100BFC1F3421501F01F030126A2
:1016800006FA03F3012D02D19689334006E0022DBC
:1016900002D1168A334001E0968A33400C120126AB
:1016A00006FA04F41688344013B10CB1012000E0AE
:1016B000002070BD10B50022002340F66A14A1423C
:1016C00000D100BF0A1201249440A3B2DC4304807D
:1016D00010BD0000003801400044004000480040B8
:1016E000004C00400050004010B50446FE488442C3
:1016F00008D10121C014FFF77FFC0021E014FFF79F
:101700007BFCC4E0B4F1804F08D101210846FFF70B
:1017100080FC00210120FFF77CFCB8E0F348844204
:1017200008D101210220FFF774FC00210220FFF7FD
:1017300070FCACE0EE48844208D101210420FFF7A0
:1017400068FC00210420FFF764FCA0E0E948844223
:1017500008D101210820FFF75CFC00210820FFF7D9
:1017600058FC94E0E448844208D101211020FFF79E
:1017700050FC00211020FFF74CFC88E0DF48844239
:1017800008D101212020FFF744FC00212020FFF791
:1017900040FC7CE0DA48844208D101214014FFF784
:1017A0002BFC00216014FFF727FC70E0D548844231
:1017B00009D10121C804FFF71FFC00214FF40020CC
:1017C000FFF71AFC63E0D048844209D101210805E3
:1017D000FFF712FC00214FF48010FFF70DFC56E0DC
:1017E000CA48844209D101214805FFF705FC0021C0
:1017F0004FF40010FFF700FC49E0C548844208D1CF
:1018000001214020FFF705FC00214020FFF701FCEB
:101810003DE0C048844208D101218020FFF7F9FB58
:1018200000218020FFF7F5FB31E0BB48844208D15E
:1018300001218015FFF7EDFB0021A015FFF7E9FB63
:1018400025E0B648844209D101210804FFF7D4FB02
:1018500000214FF48030FFF7CFFB18E0B0488442FE
:1018600009D101214804FFF7C7FB00214FF40030E4
:10187000FFF7C2FB0BE0AB48844208D1012188048A
:10188000FFF7BAFB00214FF48020FFF7B5FB10BD36
:1018900000220288944B98420ED0994B98420BD06C
:1018A000B0F1804F08D0914B984205D0904B9842B0
:1018B00002D0904B984204D14FF68F731A404B8858
:1018C0001A438D4B984207D08C4B984204D04FF668
:1018D000FF431A40CB881A4302808B8883850B888C
:1018E0000385814B98420BD0854B984208D08B4B97
:1018F000984205D08A4B984202D08A4B984201D137
:101900000B7A038601238382704770B5002400227E
:101910000023058C4FF6FE7635400584028C8388C3
:10192000048B4FF68F752C40B51E2C400D882C4330
:10193000751E2A400D892A434D882A436A4DA842C4
:101940000BD06F4DA84208D0744DA84205D0744DFD
:10195000A84202D0734DA84213D14FF6F7752A4022
:101960004D892A434FF6FB752A408D882A434FF64E
:10197000FF652B404FF6FF552B408D892B43CD89BA
:101980002B4383800483CD888586028470BD70B527
:10199000002400220023058C4FF6EF7635400584A5
:1019A000028C8388048B48F6FF752C404FF6FF4568
:1019B0002C400D884FF6FF7606EA05252C434FF69E
:1019C000DF752A400D8906EA05152A434D8806EA87
:1019D00005152A43444DA84202D0494DA8421DD1C5
:1019E0004FF67F752A404D894FF6FF7606EA0515BA
:1019F0002A434FF6BF752A408D8806EA05152A430B
:101A00004FF6FF352B404FF2FF752B408D8906EACC
:101A100085052B43CD8906EA85052B438380048306
:101A2000CD880587028470BD70B500240022002394
:101A3000058C4FF6FF6635400584028C8388848BC5
:101A40004FF68F752C404FF6FC752C400D882C43BB
:101A50004FF6FF552A400D894FF6FF7606EA052519
:101A60002A434D8806EA05252A431F4DA84202D085
:101A7000234DA8421DD14FF2FF752A404D894FF6E4
:101A8000FF7606EA05252A434FF6FF352A408D8862
:101A900006EA05252A434EF6FF752B404DF6FF75E5
:101AA0002B408D8906EA05152B43CD8906EA0515DD
:101AB0002B4383808483CD888587028470BD70B575
:101AC000002200230024058C4EF6FF763540058465
:101AD000038C8488828B48F6FF752A404FF6FF45B9
:101AE0002A400D8820E00000002C01400004004046
:101AF00000080040000C00400010004000140040AE
:101B000000340140004C01400050014000540140AD
:101B100000180040001C0040002000400040014030
:101B200000440140004801404FF6FF7606EA0525D3
:101B30002A434DF6FF752B400D8906EA05352B43E8
:101B40004D8806EA05352B43FA4DA84202D0FA4DDE
:101B5000A84208D14BF6FF752C408D894FF6FF76D1
:101B600006EA85152C4384808283CD88A0F84050F6
:101B7000038470BD828B4FF2FF331A408283828BC5
:101B80004FF6FF7303EA01231A4382837047F0B5CF
:101B90000C461546002200210026078C4EF6FF7CDD
:101BA00007EA0C070784828B018C4FF6FF7707EA60
:101BB000043640F6FF473A404FF6FF7707EA05271D
:101BC0003A434FF6FF7707EA03373A43D94FB84213
:101BD0000ED0D94FB8420BD0B0F1804F08D0D74FBC
:101BE000B84205D0D64FB84202D0D64FB84206D13F
:101BF0004DF6FF77394046F48057394305E047F604
:101C0000FF57394044F48057394382830184F0BD43
:101C1000828B4FF6F3731A408283828B0A4382834E
:101C20007047F0B50C461546002200210026078CAF
:101C30004FF6FF6C07EA0C070784828B018C4FF686
:101C4000FF7707EA04264FF60C773A404FF6FF7706
:101C500007EA03172F433A43B64FB8420ED0B64FA8
:101C6000B8420BD0B0F1804F08D0B44FB84205D085
:101C7000B34FB84202D0B34FB84206D14FF6FF5728
:101C8000394046F48077394305E04FF2FF57394039
:101C900044F48077394382830184F0BD028B4FF294
:101CA000FF331A400283028B4FF6FF7303EA0123CE
:101CB0001A4302837047F0B50C46154600220021F6
:101CC0000026078C4FF6EF7C07EA0C070784028B8F
:101CD000018C4FF6FF7707EA041640F6FF473A40BB
:101CE0004FF6FF7707EA03373A434FF6FF7707EAE5
:101CF00005273A438F4FB8420ED08F4FB8420BD0D2
:101D0000B0F1804F08D08D4FB84205D08C4FB8420B
:101D100002D08C4FB84206D14FF6DF77394046F0FB
:101D20001007394305E04FF65F77394044F010075C
:101D3000394302830184F0BD028B4FF6F3731A40DE
:101D40000283028B0A4302837047F0B50C461546A6
:101D500000220021068C4FF6FE773E400684028B5F
:101D6000018C4FF60C7632407E1C06EA03162E4399
:101D70003243704EB0420ED06F4EB0420BD0B0F135
:101D8000804F08D06D4EB04205D06D4EB04202D0AB
:101D90006C4EB04206D14FF6FD76314044F001065C
:101DA000314305E04FF6F576314044F0010631430A
:101DB00002830184F0BD70B505460C465D4885423E
:101DC0000ED05D4885420BD0B5F1804F08D05B48FE
:101DD000854205D05A48854202D05A48854200D1F2
:101DE00000E000BF208850B92389A2886188284676
:101DF000FFF7ABFFE1882846FFF79EFF25E020882C
:101E000004280AD12389A28861882846FFF753FF56
:101E1000E1882846FFF742FF17E0208808280AD10A
:101E20002389A28861882846FFF7FBFEE1882846BF
:101E3000FFF7EEFE09E02389A28861882846FFF7B4
:101E4000A6FEE1882846FFF795FE70BD2DE9F0411A
:101E500005460C4600260127608808B9022600E0E6
:101E60000026A088012801D1022700E00127208850
:101E7000A0B92389A28861882846FFF766FFE18818
:101E80002846FFF759FF23893A4631462846FFF78F
:101E900012FFE1882846FFF701FF13E02389A2889B
:101EA00061882846FFF707FFE1882846FFF7F6FE1E
:101EB00023893A4631462846FFF747FFE1882846FE
:101EC000FFF73AFFBDE8F0810A884B881A438B88F8
:101ED0001A43CB881A430B891A434B891A438B89BF
:101EE0001A43A0F8442070474FF6FF71818000210B
:101EF0000180C180418001727047002101804180D2
:101F00008180C180018141818181C181704700212F
:101F100001804180012181800021C18001817047C1
:101F20000021018041808180C180018141818181C6
:101F300070470000002C01400034014000040040C4
:101F400000080040000C004021B1028842F001026C
:101F5000028004E002884FF6FE731A400280704748
:101F600031B1B0F8442042F40042A0F8442005E02A
:101F7000B0F84420C2F30E02A0F8442070471AB112
:101F800083890B43838102E083898B43838170477C
:101F90008182704741EA0203A0F8483070471AB1C5
:101FA00083890B43838102E083898B43838170475C
:101FB00001894FF6F8721140018170470A460021ED
:101FC00001894FF68F73194011430181704730B575
:101FD00004460D4629462046FFF7F0FF208940F0D1
:101FE0000700208130BD2DE9F04104460D4616461C
:101FF0001F46602D06D13B46012231462046FFF7A1
:102000005AFE05E03B46012231462046FFF79DFE81
:1020100029462046FFF7D2FF208940F007002081A3
:10202000BDE8F08130B50C4600210189C9B24FF6F8
:10203000FF7505EA0325154325432943018130BD7A
:102040002DE9F04105460E461746984600244346C2
:102050003A4631462846FFF7E5FF2C894FF6F870DF
:10206000044044F007044FF68F70044044F07004BD
:102070002C81BDE8F081F0B504460D4616461F469A
:102080003B46324629462046FFF7CCFF208940F4E4
:1020900080402081F0BD0185828270470A46002180
:1020A00001884FF68F731940114301807047F0B5D6
:1020B0000C4615461E460021002200230189028B92
:1020C000038C4FF6F877394021434FF6FC473A40EE
:1020D00040F201173A434FF6DD773B404FF6FF776A
:1020E00007EA06172F433B43018102830384F0BDB7
:1020F0000A460021018B4FF68F731940114301836B
:1021000070470A460021018B48F6FF7319404FF6CD
:10211000FF7303EA02231943018370470A46002133
:10212000818B4FF68F7319401143818370470A46A4
:102130000021818B48F6FF7319404FF6FF7303EAC5
:10214000022319438183704721B1028842F0800243
:10215000028004E002884FF67F731A4002807047C5
:1021600021B1828842F00402828004E082884FF626
:10217000FB731A408280704721B1828842F00802C6
:10218000828004E082884FF6F7731A40828070479D
:1021900021B1828842F00102828004E082884FF6F9
:1021A000FE731A40828070470A460021018B4FF669
:1021B000F77319401143018370470A460021018BD0
:1021C0004FF2FF7319404FF6FF7303EA02231943DE
:1021D000018370470A460021818B4FF6F77319403F
:1021E0001143818370470A460021818B4FF2FF73B0
:1021F00019404FF6FF7303EA0223194381837047A6
:102200000A460021018B4FF6FB73194011430183ED
:1022100070470A460021018B4FF6FF3319404FF6F5
:10222000FF7303EA02231943018370470A46002122
:10223000818B4FF6FB7319401143818370470A4627
:102240000021818B4FF6FF3319404FF6FF7303EAED
:1022500002231943818370470A460021018B4FF600
:102260007F7319401143018370470A460021018B97
:10227000C1F30E014FF6FF7303EA022319430183F2
:1022800070470A460021818B4FF67F731940114336
:10229000818370470A460021818BC1F30E014FF6FE
:1022A000FF7303EA02231943818370470A46002122
:1022B000018C4FF6FD7319401143018470470A46A3
:1022C0000021018C4FF6F7731940114301847047C8
:1022D0000A460021018C4FF6DF7319404FF6FF7359
:1022E00003EA02131943018470470A460021018C56
:1022F0004FF67F7319404FF6FF7303EA0213194339
:10230000018470470A460021018C4FF6FF531940A3
:102310004FF6FF7303EA02231943018470470A460C
:102320000021018C4FF2FF7319404FF6FF7303EA4F
:1023300002231943018470470A460021018C4DF69F
:10234000FF7319404FF6FF7303EA02331943018408
:10235000704730B5002301248C40A3B2048C9C4309
:102360000484048C02FA01F5ADB22C43048430BD20
:1023700030B5002304248C40A3B2048C9C43048415
:10238000048C02FA01F5ADB22C43048430BD70B563
:102390000346002000241846183001258D40ACB2B9
:1023A0001D8CA5431D8409B1082909D100EB6100EA
:1023B000056825F0700505600568154305600EE0A9
:1023C0000D1FC5F34E052844056825F4E04505605A
:1023D00005684FF6FF7606EA02263543056070BDB4
:1023E00021B1028842F00202028004E002884FF626
:1023F000FD731A400280704721B1028842F0040246
:10240000028004E002884FF6FB731A400280704796
:1024100021B1828842F08002828004E082884FF6F7
:102420007F731A408280704702884FF6F7731A4014
:10243000028002880A430280704782884FF68F73B9
:102440001A40828082880A438280704702894FF650
:10245000F8731A40028102890A4302817047028997
:102460004FF67F731A40028102890A430281704746
:1024700081847047818570478186704701877047E6
:1024800081877047A0F84010704702884FF6FF43DD
:102490001A40028002880A43028070470146888EF3
:1024A00070470146088F70470146888F7047014684
:1024B000B1F8400070470146888C70470146088D8E
:1024C000704702460020138A0B400BB1012000E048
:1024D00000207047CA430282704730B50246002090
:1024E00000230024158A05EA0103958905EA010401
:1024F00013B10CB1012000E0002030BDCA430282BC
:1025000070470000002044490860091D0860091D4B
:102510000860091D086041483F4914310860704750
:1025200000213D498279002A3AD00A4612680368A0
:102530009A430B461A600A1D126803689A430B1DE2
:102540001A60027911440A6803681A430A60324A21
:102550000832126803689A432F4B08331A601A1D19
:10256000126803689A432C4B0C331A604279102A84
:102570000ED11A1F126803681A43274B08331A60DA
:102580001A1D126803681A43234B0C331A600DE0BE
:102590002149427911440A6803681A430A6005E038
:1025A000027911440A6803689A430A60704700215F
:1025B000016001710C214171002181717047164940
:1025C000103109680143144A103211607047014606
:1025D0000020114A143212680A400AB1012000E0BA
:1025E000002070470C4914310860704701460020F4
:1025F0000022094B1B6803EA0102074B14331B68D6
:102600000B4013B10AB1012000E0002070470249DD
:10261000143108607047000000040140FFFF0F0004
:10262000704700000FB4044910B503AA029800F0E7
:1026300015F810BC5DF814FB0800002070477047C7
:102640007047704710B500F01BF8006810BD10B55A
:10265000044600F015F8046010BD0000074B70B58B
:102660000D467B4400F015F80446284600F024F897
:1026700010B14FF0FF3070BD204670BD4BDEFFFF44
:10268000004870472002002001694A1C0261087856
:10269000704700B58FB0CDE90131002105910549A2
:1026A0007944CDE903101146684600F032F80FB0C6
:1026B00000BD0000E5FFFFFF007B00F080007047D9
:1026C00000487047200200207546FFF7F9FFAE462C
:1026D00005006946534620F00700854618B020B52E
:1026E000FDF786FDBDE820404FF000064FF00007E3
:1026F0004FF000084FF0000B21F00701AC46ACE8AA
:10270000C009ACE8C009ACE8C009ACE8C0098D4616
:1027100070472DE9F04106460024D6E90170F568BE
:102720008046304603E04146B847641C3046A8471F
:102730000028F8D12046BDE8F08110B50446AFF37B
:1027400000802046BDE81040FDF739BD490050EA41
:10275000C12018BF04204A0D18BF40F0010040F20C
:10276000FF72B2EB515F08BF40F00200012808BFC2
:10277000052070472DE9F74F144694B00021C4E9B5
:1027800002111599079121F00045C9498D4206DCD7
:102790001599C4E9000117B00020BDE8F08FC549C4
:1027A000DFF814A3A9423CDD0799C44E0029C44FA9
:1027B000C44A1599534619DD00F0E6FE554506D08A
:1027C000C14AC24B00F0E0FEC4E900010AE04FF04C
:1027D000D352BE4B00F0D8FE32463B4600F0D4FE4A
:1027E000C4E9000117B00120BDE8F08F00F032FB12
:1027F000554506D0B44AB54B00F02CFBC4E90001A6
:102800000AE04FF0D352B14B00F024FB32463B4676
:1028100000F020FBC4E9000117B04FF0FF30BDE825
:10282000F08FAB49A942159978DB21F0004183462E
:102830008846A84AA84B00F09DFD0022A74B00F057
:1028400009FB00F00FFD099000F069FD06460F46F8
:102850009C4A534600F08EFD43465A4600F088FEDF
:1028600080468A46984A994B3046394600F082FDA8
:102870002A0D01250B924246534600F079FE032DA6
:10288000C4E9000139D00B98C1F30A51401A05EB95
:1028900045111139814230DA9148C346784400EB42
:1028A0000510CDF80CA00C90D0E900233046394635
:1028B00000F060FD02460B460491069058460399CD
:1028C00000F062FE80468A4602460B46584603994F
:1028D00000F05AFE049B069A00F056FE83460C98C0
:1028E00003913946D0E90223304600F043FD5A46B1
:1028F000039B00F049FE6D1CBDE707980028A2BFAE
:10290000099817B0BDE8F08F616881F000416160FF
:10291000099817B04042BDE8F08FFFE7844615984C
:10292000C1F31301C0F30A50A0F2F5304FEA60186A
:1029300000F01F06C6F120001390002006900790BB
:1029400041F4801E05206D4676B1664A08EB000111
:102950007A4452F8213002EB8101B3404A6813995E
:1029600022FA01F1194305E05F4908EB00027944BE
:1029700051F82210A1FB0E27A1FB0C131A449A4216
:1029800034BF0123002303EB070A05EB8003D3E9DF
:1029900001B70F448F4234BF0121002193448B447F
:1029A00011B1934502D903E0934501D2012100E022
:1029B0000021C3E901B7514445F82010011EA0F1E0
:1029C0000100C1DC0298059F00F10050800F1290B9
:1029D0000298DDE90356800000F0A1FC83462846FA
:1029E0000D9100F0B3FC6FF01D0200F0E9FECDE99F
:1029F0000E01304600F0AAFC6FF03D0200F0E0FE50
:102A000080468A46384600F0A1FC6FF05D0200F077
:102A1000D7FE074642465346119100F01BFADDE906
:102A20000E2300F017FA5A460D9B00F013FA00250A
:102A30000E465A4628460D9B00F0A6FDDDE90E2302
:102A400000F0A2FD4246534600F09EFD3A46119B1F
:102A500000F08EFDDFF898A0244A534600F08AFC6F
:102A600007468846234A244B3146284600F082FC1C
:102A70003A46434600F0EEF9074688464FF0A84232
:102A800053463146284600F075FC3A46434600F06E
:102A9000E1F9159A12F0004F04D0129A81F000412A
:102AA00052421292C4E90001129817B0BDE8F08FAB
:102AB000FB21E93F7CD90240FB21F93F7370032ED3
:102AC0008A19A33B000040543163621A61B4D03DBF
:102AD000FB21394183C8C96D305FE43F0000E03F0E
:102AE000E00F00005C0F00003E0F0000182D445462
:102AF000FB21F93D3326A611460B113C2DE9FF4D74
:102B000021F0004807460C46B8F1795F08DA00F07A
:102B1000A9FB002801BF0020324904B0BDE8F08DB8
:102B20003A4623461046194600F024FC0546024664
:102B30002D480E460B460621784400F05DF82A46E3
:102B4000334600F017FCDDE9022382468B46384607
:102B5000214600F00FFC04460F4652465B462846CD
:102B6000314600F007FC22463B4600F00DFD0746CB
:102B70008A464FF0FF322846314600F021FE1B4ABC
:102B800090450ADA3A46534600F0FEFC04B00022B3
:102B9000BDE8F04D134B00F0EBBC154A4245A8BF11
:102BA000A8F500154FF00004B8BF124D22462B4681
:102BB00000F0EAFC0646884622462B4600200949DA
:102BC00000F0E2FC04460D463A4653463046414684
:102BD00000F0DAFC04B022462B46BDE8F04D00F0D0
:102BE000C7BC00000000F03F140D00003333D33F9A
:102BF0000000E93F0000D23F2DE9F0414F1E00EBFD
:102C0000C7010446D1E9000115461E4637F0060209
:102C10000DD02A46334600F0ADFB7F1E04EBC70300
:102C2000D3E9002300F016F937F00602F1D1022FA4
:102C300025D0042F13D0062F18BFBDE8F0812A46F7
:102C4000334600F097FBD4E90A2300F003F92A4643
:102C5000334600F08FFBD4E9082300F0FBF82A4646
:102C6000334600F087FBD4E9062300F0F3F82A4648
:102C7000334600F07FFBD4E9042300F0EBF82A464A
:102C8000334600F077FBD4E9022300F0E3F82A464C
:102C9000334600F06FFBD4E90023BDE8F04100F0BB
:102CA000D9B800002DE9FF4D054621F0004084B061
:102CB0000C46B0F1795F0BDA2846FFF747FD042890
:102CC00008BF00F06FF8284608B02146BDE8F08D37
:102CD0002A460B46104600F04DFB06460F462A4694
:102CE000234600F047FB804626488A4632463B464C
:102CF00005217844FFF780FF83461098029160B366
:102D0000214A224B4046514600F034FBCDE90001F8
:102D10005A4640465146029B00F02CFB82468846AC
:102D2000DDE906014FF0FF3200F04AFD524643460E
:102D300000F02AFC32463B4600F01CFBDDE906238E
:102D400000F022FCDDE9002300F01EFC08B02A465A
:102D50002346BDE8F04D00F00BBC0B465A4630460A
:102D6000394600F007FB084A084B00F073F842466A
:102D7000534600F0FFFA08B02A462346BDE8F04D5E
:102D800000F068B8520C0000495555555555C5BF5F
:102D9000012200F015BD002213461046114600F036
:102DA00009B90000024A0020110700F009BD000027
:102DB00001FDFFFF00B5254B21F0004287B09A428C
:102DC00003DC0022134600922BE0214B9A4208D1EB
:102DD00040B94FF00100FFF73AFCFFF7DCFF07B006
:102DE00000BD03DBFFF7D4FF07B000BD02AAFFF769
:102DF000C1FC10F003014FF001000DD0012914D0E7
:102E000002291AD00DF1080C9CE80F00FFF776FE9E
:102E100007B081F0004100BD0DF1080C00909CE866
:102E20000F00FFF73FFF07B000BD0DF1080C9CE855
:102E30000F00FFF763FE07B000BD0DF1080C009016
:102E40009CE80F00FFF72EFFE2E70000FB21E93FBF
:102E50000000F07F10B591EA030F48BF83F00043F4
:102E600000F19A83841A71EB030C05D2121943EB1B
:102E70000C03001B61EB0C01DFF824E14FEA115455
:102E8000A4EB135C1EEA430F18BF9EEA445F73D0A5
:102E900023EA0E03DCF1200E21EA045143F48013EF
:102EA00032D322FA0CFE10EB0E0023FA0CFE41EB9B
:102EB0000E01CCF1200E03FA0EFE10EB0E0051F1C4
:102EC0000001B1F5801FCCF1200E32D201EB04518C
:102ED00012FA0EF2BDE8104058BF7047401C38BFD0
:102EE0005FEA420218BF7047002814BF20F00100BB
:102EF00041F100014FEA410313F5001F38BF70474D
:102F0000A1F1C04100F02EBB012A43EB0302ACF15A
:102F1000200CDCF11F0E32BF4FF0000E23FA0CF331
:102F200010EB030041EB0451B4EB115FD0D0A1EBE7
:102F3000045101F5801149085FEA300001EB0451AA
:102F40000ED350F1000038BF12FA0EFE08D1BDE8D2
:102F50001040C9E7401C38BF5FEA4202CAD1C3E74C
:102F6000BDE810404FEA410313F5001F38BF70471A
:102F7000A1F1C04100F0F6BA9EEA445F08D011EA20
:102F80005E0FBDE8104004BF01F000410020704713
:102F9000BDE8104070B500F097FA00BF64FBBE3E7C
:102FA0000000E0FF02494FF0000000F0D7BB00BF77
:102FB0000000F87F2DE9C04130B4DFF8A0C23CEA40
:102FC000111418BF3CEA131400F0EC8081EA0305E9
:102FD0001CEA111444EAD57418BF1CEA131500F05A
:102FE000C780A4EB05044FF0004545EAC12145EA3E
:102FF000C32341EA505143EA525304F17F7499428A
:1030000004F500344FEAC0204FEAC22208BF9042C4
:1030100000F09C804FEA13650FF24016765D4FEA90
:10302000134506FB05F7C7F1807706FB07F74FEA64
:10303000D737A7FB03687642C8F58038A7FB06CED2
:1030400038BFA8F1010807FB08E64FF0000EA6FB09
:10305000028CE6FB03CEDCF1000CCEF1004E38BF53
:10306000AEF1010EA6FB0C584FF000074FF0000523
:10307000E6FB0E87A1FB08C6A0FB07CE16EB0E06EB
:1030800045F10005E1FB076515F1E04E7EBFA4F5B3
:1030900080345FEA46066D4116F1800745F1000570
:1030A0004FEA17274FEA066647EA0567A6F1DE46AC
:1030B000B6F1805F4FEA15251FD9384624F0010C80
:1030C00005EBC471BCF1FE6F01EB0C1102D8F0BC32
:1030D000BDE8008124425CBF01F5801E9EEAC47FEA
:1030E00002D4F0BCBDE80081244238D4F0BCA1F188
:1030F000C041BDE8004100F035BA4FEAD22242EAB1
:1031000043524FEAD323A7FB02864FEAD02040EA7E
:10311000415007FB03661EEA0E0F4FEAD12105FB63
:10312000026658BFA6EB0056B6EB00564FEA520EA9
:103130004EEAC37E18EB0E0E56EB530EBDD518EBC0
:1031400002085E417F1C55F10005B6E74FF480157B
:103150004FF000074FF000064FF00008ADE7F0BC5D
:103160004FF0000001F1C04101F00041BDE80081D5
:1031700011EA0C1F0CEA131500D00CE013EA0C1F27
:1031800000F025804FF00000F0BC81EA030101F05F
:103190000041BDE80081F0BCBDE8004181EA0301C7
:1031A00000F0E0B9F0BCBDE8004170B500F08CF96A
:1031B000097EFC3E00F007B881EA03014FF00000F1
:1031C00001F00041704781EA030100F0CBB9F0BC87
:1031D000BDE800414FF0000021497047FFFDFBF9B9
:1031E000F7F5F4F2F0EEEDEBE9E8E6E4E3E1E0DE3A
:1031F000DDDBDAD8D7D5D4D3D1D0CFCDCCCBCAC8AC
:10320000C7C6C5C4C2C1C0BFBEBDBCBBBAB9B8B7D2
:10321000B6B5B4B3B2B1B0AFAEADACABAAA9A8A8C5
:10322000A7A6A5A4A3A3A2A1A09F9F9E9D9C9C9B93
:103230009A9999989797969595949393929191903E
:103240008F8F8E8E8D8C8C8B8B8A898988888787CF
:103250008685858484838382828181800000FF0744
:103260000000F87F4FEA41034FEA5353A3F5806310
:10327000D3F11E03C8BFD3F1210C0CDD4FF0004287
:1032800042EAC12242EA505232FA03FC8CEAE17C63
:10329000ACEBE1707047102BC4BF0020704703F502
:1032A000787CBCF1FF3F04D06FF0004282EA21003D
:1032B000704770B500F008F94992248000207047EB
:1032C000F2E700004FEA1153A3F58063D3F11E0328
:1032D000A8BFD3F1200C08DB4FF0004242EAC12224
:1032E00052EA505232FA03F0704709420BD4102BC5
:1032F000C4BF0020704703F5787CBCF1FF3F05D0C8
:103300004FF0FF3070474FF00000704770B500F08D
:10331000DBF800BF4992248000207047F0E710F0EE
:10332000004248BF4042B0FA80F310FA03F10AD0DD
:10333000C3F11D0303F580634FEA415002EB0352D2
:1033400002EBD12170474FF000007047B0FA80F3D4
:1033500010FA03F10AD0C3F11D0303F580634FEAAD
:1033600041504FEA035202EBD12170474FF0000069
:1033700070470000DFF848C170B51CEA111E1EBF7F
:103380001CEA13159EEA0C0F95EA0C0F00F06F80F3
:1033900081EA030423EA4C134EEAD47E21EA4C115D
:1033A00041F4801143F48013AE44A1FB024CA0FB16
:1033B0000365AEF17F7E361955EB0C05A1FB034C7E
:1033C0004CF10003A0FB021C16EB0C06654153F107
:1033D0000003094218BF46F0010613F4007F0BD129
:1033E0004FEA03314FEA0530340341EA155140EA10
:1033F00016506FF003020AE04FEAC3214FEAC520DE
:10340000F40241EA555140EA56506FF0020202EBD5
:103410002E4201EB025585EACE710AD05FEA440CD8
:1034200018BF24F0004450F1000041F1000120EAEF
:10343000D47040F2FE7C624500D270BDA84214BF39
:103440004FF080444FF04044002E08BF0024BEF1EE
:10345000806FA8BFA1F1C041BDE8704080F28280BA
:103460004FF0000001F1C04101F0004170479EEAB9
:103470000C0F0CEA131518BF95EA0C0F06D04FF08D
:10348000000081EA030E0EF0004170BD00F01CF850
:103490008900013E00F007B800F009B84FEA430C7C
:1034A0005FEA5C5C08D081EA030100F05BB84FEA98
:1034B000410C5FEA5C5CF6D14FF0000001497047B7
:1034C0000000FF070000F87F0EF1020E2EF0030E41
:1034D0005EF8046B364205D4012A43EB030515F56B
:1034E000001F12D8012841EB010C1CF5001F0CD85D
:1034F0000ED14FEAD17C15F5001F0CEB4C0C0CF1F2
:10350000020C08BF4CEBD37C04E04FF0080C01E048
:103510004FEAD37C0CEB4C0526FA05F606F00706BD
:10352000B6F1040C06D20EEB860CBDE870404CF0F0
:10353000010C6047DFE80CF0090B02024FF000417C
:103540004FF00000A1F5002170BD1946104601287A
:1035500051EB010418BFD4F5001484BF002001F022
:10356000004170BD0808A0F500114FEA3101704715
:1035700091EA030F10B581F000413FF573AC83F081
:10358000004300F009B8000010B591EA030F48BFEE
:1035900083F000433FF566AC841A71EB030C07D24D
:1035A00012198CF0004C43EB0C03001B61EB0C0177
:1035B000DFF8A4E14FEA1154A4EB135C1EEA430FB9
:1035C00018BF9EEA445F00F0B08023EA6E035242C7
:1035D00021EA0451C3EB6E0338BF5B1EDCF1200E01
:1035E00025D322FA0CFE10EB0E0043FA0CFE41EB41
:1035F0000E01CCF1200E03FA0EFE10EB0E0051F17D
:103600000001CCF1200E29D412FA0EF201EB045184
:10361000BDE8104058BF7047401C1CBFB2F1004FBE
:10362000704700280CBF491C20F00100704712EBC6
:10363000020E43EB030218BF4FF0010E4EEA4202A6
:10364000ACF1200CDCF11E0E54D943FA0CFE10EB49
:103650000E0051F1FF31CCF11E0ED5D50EF1010E49
:1036600012FA0EFE404141EB010101EB445C5FEABE
:103670005C5C10D910EBDE7001EB045138BFBEF179
:10368000004FBDE8104018BF704700280CBF491C10
:1036900020F00100704730D24FEAD42C11F5001110
:1036A00024F400641BD0B1FA81F20B3AA41AA41ED0
:1036B000D2F12003914030FA03F31943904001EB1B
:1036C000CC71002C01EB0451BDE81040A8BF70473D
:1036D00001F1C0414FF0000001F000417047B0FA25
:1036E00080F310FA03F100D110BDE41A173C48052D
:1036F000C90AE4E701EB045110BD491001EB045184
:10370000BDE810404FEA300002E04FF00001704782
:103710004A0008BF0042F8D0B2F5001F28BF70472A
:1037200001F000414FF0000070479EEA445F07D06F
:1037300011EA5E0FBDE8104004BF00210020704771
:10374000BDE8104070B5FFF7BFFE00BF40DFF63E9A
:1037500083F00041104670470000E0FF0CF00F03BB
:10376000092B08BF082000F059800A2B0BD0082B2A
:1037700018BF704708BF1CF0400F0AD04FF0000080
:103780004FF0000170471CF0400F18BF4FF0004091
:1037900070471CF0100F08D020F0704300F07F42FB
:1037A00042EAD3014FEA4370704700F0604021F0D5
:1037B0007F4242EA000201F07F4040EA72707047A7
:1037C0004FF0FF0C4CF4E06C1CEA11531CBF9CEA58
:1037D000030C9445C2BFDA4201EB02517047002B43
:1037E0000DD0BCF1000F0FD0002A01F00041A4BFA2
:1037F00041F0E04141F07F614FF00000704701F07F
:1038000000414FF00000704750EA01334FF09B0C2D
:1038100018BF4CF0806C7FF4C5AB70471CF4801F60
:1038200011D01CF4E02F03D06FEACC31490070476F
:103830004FF04050EFF3008222F0704242EA000263
:1038400082F3008870474FF00000704700000000CE
:103850004C5555555555A53F7751C1166CC156BFAE
:103860009015CB19A001FA3EAD529C804F7E92BEBE
:10387000C4B1B4BD9EEE213ED43888BEE9FAA8BDDD
:1038800000004054FB21F93F3163621A61B4D03D1E
:103890000000601A61B4D03D7370032E8A19A33BF7
:1038A0000000002E8A19A33BC14920259A837B3949
:1038B00000000000000000006E83F9A22915444EAC
:1038C000D15727FCC0DD34F5999562DB4190433C2C
:1038D000AB6351FE61C5BBDE3A6E24B7E0D24D4208
:1038E000EA2E49061C92D1091CEB1DFE3EA729B108
:1038F000F53582E88444BB2E26709CE9417E5FB496
:1039000039D69139F43953838B5F849C3B28F9BDB8
:10391000FF97F81F0F9805DE8B112FEF1F6D0A5AC6
:10392000CF7E366DB709CB27663F464F2DEA5F9EA7
:10393000C7BA27757BF1E5EBF739073DEA92528A62
:10394000B15FFB6B085D8D1FA6F810111111813F4F
:10395000D561C119A0012ABF7DFEB157E31DC73E45
:10396000EB9C2B8AE6E55ABE7CD5CF5A3AD9E53D89
:103970009039000800000020200000006C010008C1
:10398000B039000820000020600A0000880100080B
:103990000000000000000000000000000000000027
:1039A00001020304010203040607080902040608D1
:0400000508000131BD
:00000001FF
