:020000040800F2
:1000000000040020CF010008790200087B020008EC
:100010007F02000883020008870200080000000039
:100020000000000000000000000000008B0200083B
:100030008D020008000000008F02000891020008F5
:10004000EF010008EF010008EF010008EF010008D0
:10005000EF010008EF01000855070008EF01000854
:10006000EF010008EF010008EF010008EF010008B0
:10007000EF010008EF010008EF010008EF010008A0
:10008000EF010008EF010008EF010008EF01000890
:10009000EF010008EF010008EF010008EF01000880
:1000A000EF010008EF010008EF010008EF01000870
:1000B000EF010008EF010008EF010008EF01000860
:1000C000EF010008EF010008EF010008EF01000850
:1000D000EF010008EF010008EF010008EF01000840
:1000E000EF010008EF010008EF010008EF01000830
:1000F000EF010008EF010008EF010008EF01000820
:10010000EF010008EF010008EF010008EF0100080F
:10011000EF010008EF010008EF010008EF010008FF
:10012000EF010008EF010008EF010008EF010008EF
:1001300000F002F800F03AF80AA090E8000C8244BF
:100140008344AAF10107DA4501D100F02FF8AFF29C
:10015000090EBAE80F0013F0010F18BFFB1A43F0A5
:10016000010318473C1300005C130000103A24BF41
:1001700078C878C1FAD8520724BF30C830C144BF0C
:1001800004680C607047000000230024002500264E
:10019000103A28BF78C1FBD8520728BF30C148BFEA
:1001A0000B6070471FB51FBD10B510BD01F036F9CB
:1001B0001146FFF7F7FF00F02DF801F068F903B4DE
:1001C000FFF7F2FF03BC00F065F9000070470B4831
:1001D00080470B4981F308880A480047FEE7FEE79D
:1001E000FEE7FEE7FEE7FEE7FEE7FEE7FEE7FEE7E7
:1001F00005480649044A064B70470000CD01000837
:1002000080080020310100088000002080080020C4
:1002100080000020092000F0ADF9482000F0EAF845
:1002200000F065F94FF4165000F081F900F0E8F99C
:10023000F92247214FF4FA7000F018FA00F062FA40
:1002400000F070FA0CE007480068C0430649C1F8A6
:10025000B8014FF4FA7000F0FCF804A001F09CF82B
:10026000F1E70000B80124420000244272756E6E6E
:10027000696E670D0A000000704700BFFEE700BF0F
:10028000FEE700BFFEE700BFFEE77047704770471C
:10029000704700000146072323EA010212024E4B79
:1002A00018684FF6FF0318404C4B184310434A4B55
:1002B000186070472DE9F0478046894614461D4670
:1002C0002046E11704EB9171C1F3870AE11704EBB3
:1002D00091718910A4EB8101CFB2042000EBC7001B
:1002E000C7B22846FFF7D6FFC5F1040008FA00F6AA
:1002F0000F20284100EA0900064306F00F06202CD3
:1003000009DA374801680120A04001434FF0E0209E
:10031000C0F800110BE03248001D0068A4F1200174
:1003200001228A4010434FF0E021C1F804012D481A
:1003300010F80A0006FA07F10843C1B2294800F88C
:100340000A10BDE8F08770B504460B46CE1701EBE6
:100350009676C6F38700CE1701EB9676B610A1EB22
:100360008606B606350E204B9B6943F001031E4EF0
:10037000B3614FEAB63353F820300F26AE40B34393
:100380001A4E46F82030334653F8203004FA05F66A
:100390001E43164B43F82060154B1B6801268E4008
:1003A0003343134E336002F0010343B1104B0C335F
:1003B0001B6801268E4033430D4E0C36336002F02D
:1003C000020343B10A4B08331E6801238B401E43CE
:1003D000074B08331E6070BD0CED00E00000FA050D
:1003E00000E100E000E400E00010024008000140ED
:1003F000000401404FF0E021096921F004014FF0B1
:10040000E0221161C108214A1160114609684FF4C8
:100410007A7251431E4A1160704701461B4A1268A6
:100420004A434FF0E0235A6100229A6101221A6187
:1004300000BF4FF0E022106900F001021AB100F491
:100440008032002AF5D000224FF0E0231A619A6131
:10045000704701460E4A12684A434FF0E0235A6142
:1004600000229A6101221A6100BF4FF0E022106958
:1004700000F001021AB100F48032002AF5D0002207
:100480004FF0E0231A619A617047000000000020DD
:100490000400002000BF704770B504460D4600BF41
:1004A0008021324800F08EFE0028F9D0A1B22F48FA
:1004B00000F01AFE204670BD10B5044600BF802132
:1004C0002A4800F07FFE0028F9D02146274800F096
:1004D0000BFE10BD10B500BF2021244800F072FEB5
:1004E0000028F9D0214800F003FEC0B210BD08B5C5
:1004F000012144F2040000F057FC4FF40070ADF805
:10050000000018208DF8030003208DF802006946D2
:10051000174800F08DF94FF48060ADF8000004201A
:100520008DF803006946124800F082F908BD1FB536
:10053000044600940020ADF80400ADF80600ADF8C4
:100540000800ADF80C000C20ADF80A006946074819
:1005500000F0D1FC002240F22551044800F063FD78
:100560000121024800F053FD1FBD0000003801408A
:1005700000080140002100221F4B1A61DA601A4670
:10058000126842F480321A6000BF1B4A1268520C93
:10059000002AFAD04FF48062174B5A60821ED0B204
:1005A0001A46526842EA80425A601A46526842F439
:1005B00080325A60114A126842F032020F4B1A60C0
:1005C0000D4A126842F080720B4B1A6000BF0A4A53
:1005D0001268520E002AFAD0074A526842F002020C
:1005E000054B5A6005E0044A5268C2F3870101F0E6
:1005F00003010229F7D17047001002400020024099
:100600001748806940F48070154988610846806900
:1006100040F0200088611348406820F07060114964
:1006200048600846406840F0407048600846C0682E
:1006300040F48040C8600C48006820F470000A490B
:1006400008600846006840F440100860064808301A
:10065000006840F400500449083108607047000009
:10066000001002400020014004140140F8B5064685
:100670000C4615460121022000F0A3FB01210520B4
:1006800000F092FB8020ADF8000018208DF80300E8
:1006900003208DF802006946184800F0C9F8184890
:1006A0000680001F048016481438008840F4E0409B
:1006B0001349143908800846008840F40060088017
:1006C0000F480C38008840F010000D490C390880A4
:1006D0000846008840F02000088009480C3005805A
:1006E00007482C38008840F0800005492C390880E4
:1006F0000846008840F001000880F8BD000801406D
:100700002C04004008B50121402000F04DFB0120E1
:10071000ADF8000048208DF803006946134800F04A
:1007200087F808BD10B5012200210420FFF70BFE59
:100730000223062203211846FFF7BCFD01220D21EA
:100740000220FFF700FE0223062203211846FFF7CE
:10075000B1FD10BD10B50A20FFF77BFE0121034853
:1007600000F0F9F8012000F00CFE10BD0018014067
:1007700010B50446CC48844208D10121042000F081
:100780002DFB0021042000F029FB46E0C7488442ED
:1007900008D10121082000F021FB0021082000F0F1
:1007A0001DFB3AE0C248844208D10121102000F02C
:1007B00015FB0021102000F011FB2EE0BD48844203
:1007C00008D10121202000F009FB0021202000F0A9
:1007D00005FB22E0B848844208D10121402000F006
:1007E000FDFA0021402000F0F9FA16E0B3488442F7
:1007F00008D10121802000F0F1FA0021802000F0D2
:10080000EDFA0AE0AE48844207D10121801500F0DC
:10081000E5FA0021A01500F0E1FA10BD10B50121A4
:10082000084600F0DBFA0021012000F0D7FA10BDE5
:100830002DE9F04102460025002600200023002477
:10084000002791F803C00CF00F0591F803C00CF0DD
:10085000100CBCF1000F03D091F802C04CEA050562
:1008600091F800C0BCF1000F31D0146800202BE0DB
:100870004FF0010C0CFA00F3B1F800C00CEA0306CB
:100880009E4220D183004FF00F0C0CFA03F7BC43BB
:1008900005FA03FC4CEA040491F803C0BCF1280FEC
:1008A00006D14FF0010C0CFA00FCC2F814C00AE0AB
:1008B00091F803C0BCF1480F05D14FF0010C0CFAC0
:1008C00000FCC2F810C0401C0828D1D31460B1F855
:1008D00000C0BCF1FF0F34DD546800202EE000F1B1
:1008E000080C4FF0010808FA0CF3B1F800C00CEA4C
:1008F00003069E4221D183004FF00F0C0CFA03F740
:10090000BC4305FA03FC4CEA040491F803C0BCF1B3
:10091000280F05D100F1080C08FA0CF8C2F8148071
:1009200091F803C0BCF1480F07D100F1080C4FF05B
:10093000010808FA0CF8C2F81080401C0828CED331
:100940005460BDE8F0814FF6FF7101800221817093
:100950000421C17070470246002093680B400BB120
:10096000012000E0002070470146886880B270478F
:1009700002460020D3680B400BB1012000E00020AC
:1009800070470146C86880B2704701617047416195
:1009900070470AB1016100E041617047C160704772
:1009A0004FF480320A438261816182618269826987
:1009B000704702460020434B18684FF6807318407A
:1009C00040EA021008433F4B186070473E49C86137
:1009D0007047F0B50A46002300240021002500F0EE
:1009E0000046B6F1004F02D1364EF16901E0354EB6
:1009F0007168C0F3034583B200F44016B6F5401F9A
:100A000008D121F070612F4E766826F070662D4F68
:100A10007E6012E000F48016B6F5801F06D1032632
:100A200006FA05F4A14341F0706106E0460D360177
:100A300003FA06F6B14341F0706122B1460D36016A
:100A400003FA06F6314300F00046B6F1004F02D13A
:100A50001C4EF16101E01B4E7160F0BD30B500220B
:100A60008B071C0F0F2303FA04F2164B08338C106C
:100A700053F824309343134C08348D1044F8253038
:100A800023468C1053F824308C07240F00FA04F40A
:100A900023430C4C08348D1044F8253030BD0A49EE
:100AA000DC3108607047000000080140000C014084
:100AB000001001400014014000180140001C0140DA
:100AC000002001400000014000002042DF48006893
:100AD00040F00100DD49086008464068DC490840F4
:100AE000DA49486008460068DA490840D749086092
:100AF0000846006820F4802008600846406820F41A
:100B0000FE0048604FF41F0088607047CF490968B5
:100B100021F48031CD4A11601146096821F4802109
:100B20001160B0F5803F03D0B0F5802F0ED106E004
:100B3000C649096841F48031C44A116007E0C349DD
:100B4000096841F4A021C14A116000E000BF00BF64
:100B5000704710B501460022002300204A11012AE7
:100B600002D1BA4C236806E0022A02D1B74C236AAC
:100B700001E0B64C636A01F01F02012494401C405E
:100B80000CB1012000E0002010BD38B5002000901D
:100B90000024002500BF3120FFF7DBFF0546009849
:100BA000401C00900098B0F5A06F01D0002DF2D04D
:100BB0003120FFF7CEFF08B1012400E000242046D9
:100BC00038BD01460020A14A106820F0F80040EA34
:100BD000C10010607047A0490860704702460020BD
:100BE0009A4B586820F47C1042EA01031843974B53
:100BF0005860704798490866704701460020934A3C
:100C0000506820F003000843506070478F484068E8
:100C100000F00C007047014600208C4A506820F01C
:100C2000F00008435060704701460020874A506832
:100C300020F4E06008435060704701460020834A7A
:100C4000506820F4605040EAC1005060704729B1FC
:100C50007E4A527A02437D4B5A7204E07B4A527AB2
:100C600082437A4B5A7270477B49D831086070478B
:100C700001460020754A506820F440400843506007
:100C800070470021714A20321170704A82F820109A
:100C9000012802D004280AD104E001216B4A203245
:100CA000117005E00521694A2032117000E000BF93
:100CB00000BF70476949086070476449096A014389
:100CC000624A11627047654944390860704730B51F
:100CD00000210022002400235C4D6D6805F00C010A
:100CE00021B1042905D0082923D105E05C4D056018
:100CF00022E05B4D05601FE0544D6D6805F47012F5
:100D0000524D6D6805F48034022505EB92421CB902
:100D1000544D554305600BE04C4D6D6805F40035AE
:100D20001DB1504D5543056002E04D4D55430560E2
:100D300002E04B4D056000BF00BF444D6D6805F0FB
:100D4000F0010909484D6B5C0568DD4045603F4D89
:100D50006D6805F4E061090A434D6B5C4568DD4050
:100D600085603A4D6D6805F46051C90A3E4D6B5C73
:100D70004568DD40C560354D6D6805F44041890B1F
:100D80003A4D6B5CC568B5FBF3F5056130BD29B123
:100D90002E4A526902432D4B5A6104E02B4A526994
:100DA00082432A4B5A61704729B1284A926902430B
:100DB000264B9A6104E0254A92698243234B9A614B
:100DC000704729B1214AD2690243204BDA6104E01D
:100DD0001E4AD26982431D4BDA61704729B11B4A12
:100DE000D2680243194BDA6004E0184AD2688243A1
:100DF000164BDA60704729B1144A12690243134B4B
:100E00001A6104E0114A12698243104B1A6170475B
:100E100012494039086070470F49C86470470B4950
:100E2000C87170470948406A40F0807007494862BD
:100E3000704701460020054A92680A400AB1012025
:100E400000E000207047014988727047001002409E
:100E50000000FFF8FFFFF6FE00004242800442421D
:100E600000127A0000093D000C0000201C00002048
:100E700010B50446FB48844209D101218803FFF7DD
:100E8000ADFF00214FF48040FFF7A8FF32E0F648A5
:100E9000844209D101214804FFF7ADFF00214FF43E
:100EA0000030FFF7A8FF25E0F048844209D1012176
:100EB0008804FFF7A0FF00214FF48020FFF79BFF7D
:100EC00018E0EB48844209D10121C804FFF793FFE1
:100ED00000214FF40020FFF78EFF0BE0E54884422D
:100EE00008D101210805FFF786FF00214FF480108B
:100EF000FFF781FF10BD2DE9F04786B005460E468D
:100F00000024A24600BFA1460027B08900B100BF5F
:100F10002F462C8A4CF6FF700440F08804432C8244
:100F2000AC894EF6F3100440B088318908437189CA
:100F300008430443AC81AC8A4FF6FF400440B089BB
:100F40000443AC8201A8FFF7C2FEC648874202D123
:100F5000DDF810A001E0DDF80CA0A88900F4004045
:100F600040B10AEBCA0000EB0A1031684900B0FB3F
:100F7000F1F807E00AEBCA0000EB0A1031688900BB
:100F8000B0FBF1F86420B8FBF0F004012009642103
:100F900001FB1089A88900F4004040B1322000EB29
:100FA000C900B0FBF1F000F00700044308E0322074
:100FB00000EB09106421B0FBF1F000F00F000443D6
:100FC0002C8106B0BDE8F0874FF416510160002176
:100FD0008180C18001810C21418100218181704784
:100FE00010B502460020108A4FF2FF0318400B880C
:100FF0004C8823438C882343CC8823431843108296
:1010000010BD0021018041808180C180704721B1E5
:10101000828942F40052828104E082894DF6FF7396
:101020001A4082817047F0B503460024002600254F
:10103000002040F66A17B94200D100BF1846C1F33C
:10104000421401F01F06012707FA06F5012C01D111
:101050000C3004E0022C01D1103000E014301AB141
:1010600007682F43076002E00768AF430760F0BDE1
:101070001AB1838A0B43838202E0838A8B43838283
:101080007047028A4FF6F0731A400282028A0A43BE
:101090000282704782894FF2FF731A4082818289EF
:1010A0000A438281704721B1828942F00202828123
:1010B00004E082894FF6FD731A4082817047028AEC
:1010C0004FF6DF731A400282028A0A430282704797
:1010D00021B1028A42F48042028204E0028A4BF685
:1010E000FF731A4002827047C1F308028280704782
:1010F00001468888C0F308007047818941F00101EA
:1011000081817047028BD2B20283028B42EA0122B4
:1011100002837047028B02F47F420283028B0A43F0
:101120000283704721B1828A42F02002828204E069
:10113000828A4FF6DF731A408282704721B1828A19
:1011400042F01002828204E0828A4FF6EF731A4066
:101150008282704721B1828A42F00802828204E0D2
:10116000828A4FF6F7731A408282704721B18289D2
:1011700042F40042828103E08289C2F30E0282813E
:10118000704721B1828A42F40062828204E0828A3E
:101190004FF2FF731A4082827047828A4FF6FB73C8
:1011A0001A408282828A0A438282704721B1828AEF
:1011B00042F00202828204E0828A4FF6FD731A40F6
:1011C0008282704702460020B1F5007F00D100BF47
:1011D00013880B400BB1012000E00020704701F4A0
:1011E0000072B2F5007F00D100BFCA430280704791
:1011F00070B50246002400230025002040F66A1640
:10120000B14200D100BFC1F3421501F01F03012616
:1012100006FA03F3012D02D19689334006E0022D30
:1012200002D1168A334001E0968A33400C1201261F
:1012300006FA04F41688344013B10CB1012000E022
:10124000002070BD10B50022002340F66A14A142B0
:1012500000D100BF0A1201249440A3B2DC430480F1
:1012600010BD00000038014000440040004800402C
:10127000004C004000500040002044490860091D17
:101280000860091D0860091D086041483F49143184
:101290000860704700213D498279002A3AD00A4609
:1012A000126803689A430B461A600A1D12680368A5
:1012B0009A430B1D1A60027911440A6803681A43A5
:1012C0000A60324A0832126803689A432F4B083387
:1012D0001A601A1D126803689A432C4B0C331A606B
:1012E0004279102A0ED11A1F126803681A43274B3D
:1012F00008331A601A1D126803681A43234B0C3313
:101300001A600DE02149427911440A6803681A43C2
:101310000A6005E0027911440A6803689A430A608A
:1013200070470021016001710C2141710021817120
:1013300070471649103109680143144A1032116090
:10134000704701460020114A143212680A400AB15F
:10135000012000E0002070470C49143108607047FC
:10136000014600200022094B1B6803EA0102074BDB
:1013700014331B680B4013B10AB1012000E00020B8
:1013800070470249143108607047000000040140B2
:10139000FFFF0F00704700000FB4044910B503AA07
:1013A000029800F009F810BC5DF814FB080000205A
:1013B0007047704770477047074B70B50D467B44C8
:1013C00000F011F80446284600F020F810B14FF064
:1013D000FF3070BD204670BDD7F0FFFF01694A1C89
:1013E00002610878704700B58FB0CDE90131002166
:1013F000059105497944CDE903101146684600F08E
:1014000032F80FB000BD0000E5FFFFFF007B00F0E9
:101410008000704700487047200000207546FFF7A5
:10142000F9FFAE4605006946534620F007008546A1
:1014300018B020B5FEF7DCFEBDE820404FF00006F6
:101440004FF000074FF000084FF0000B21F00701AC
:10145000AC46ACE8C009ACE8C009ACE8C009ACE8EF
:10146000C0098D4670472DE9F04106460024D6E9B3
:101470000170F5688046304603E04146B847641C79
:101480003046A8470028F8D12046BDE8F08110B5C5
:101490000446AFF300802046BDE81040FEF78FBE43
:1014A000C014000800000020200000006C010008AB
:1014B000E0140008200000206008000088010008F7
:1014C000000000000000000000000000000000001C
:1014D00001020304010203040607080902040608C6
:0400000508000131BD
:00000001FF
